{
  "contractName": "UBI",
  "abi": [
    {
      "constant": true,
      "inputs": [
        {
          "name": "",
          "type": "address"
        }
      ],
      "name": "beneficiaries",
      "outputs": [
        {
          "name": "",
          "type": "bool"
        }
      ],
      "payable": false,
      "stateMutability": "view",
      "type": "function"
    },
    {
      "constant": true,
      "inputs": [],
      "name": "deposits",
      "outputs": [
        {
          "name": "",
          "type": "uint256"
        }
      ],
      "payable": false,
      "stateMutability": "view",
      "type": "function"
    },
    {
      "constant": false,
      "inputs": [],
      "name": "unpause",
      "outputs": [],
      "payable": false,
      "stateMutability": "nonpayable",
      "type": "function"
    },
    {
      "constant": true,
      "inputs": [
        {
          "name": "account",
          "type": "address"
        }
      ],
      "name": "isPauser",
      "outputs": [
        {
          "name": "",
          "type": "bool"
        }
      ],
      "payable": false,
      "stateMutability": "view",
      "type": "function"
    },
    {
      "constant": true,
      "inputs": [],
      "name": "paused",
      "outputs": [
        {
          "name": "",
          "type": "bool"
        }
      ],
      "payable": false,
      "stateMutability": "view",
      "type": "function"
    },
    {
      "constant": false,
      "inputs": [],
      "name": "renouncePauser",
      "outputs": [],
      "payable": false,
      "stateMutability": "nonpayable",
      "type": "function"
    },
    {
      "constant": false,
      "inputs": [
        {
          "name": "account",
          "type": "address"
        }
      ],
      "name": "addPauser",
      "outputs": [],
      "payable": false,
      "stateMutability": "nonpayable",
      "type": "function"
    },
    {
      "constant": false,
      "inputs": [],
      "name": "pause",
      "outputs": [],
      "payable": false,
      "stateMutability": "nonpayable",
      "type": "function"
    },
    {
      "inputs": [],
      "payable": false,
      "stateMutability": "nonpayable",
      "type": "constructor"
    },
    {
      "anonymous": false,
      "inputs": [
        {
          "indexed": false,
          "name": "account",
          "type": "address"
        }
      ],
      "name": "Paused",
      "type": "event"
    },
    {
      "anonymous": false,
      "inputs": [
        {
          "indexed": false,
          "name": "account",
          "type": "address"
        }
      ],
      "name": "Unpaused",
      "type": "event"
    },
    {
      "anonymous": false,
      "inputs": [
        {
          "indexed": true,
          "name": "account",
          "type": "address"
        }
      ],
      "name": "PauserAdded",
      "type": "event"
    },
    {
      "anonymous": false,
      "inputs": [
        {
          "indexed": true,
          "name": "account",
          "type": "address"
        }
      ],
      "name": "PauserRemoved",
      "type": "event"
    },
    {
      "constant": false,
      "inputs": [],
      "name": "updateClaimTime",
      "outputs": [],
      "payable": false,
      "stateMutability": "nonpayable",
      "type": "function"
    },
    {
      "constant": true,
      "inputs": [],
      "name": "balanceOf",
      "outputs": [
        {
          "name": "",
          "type": "uint256"
        }
      ],
      "payable": false,
      "stateMutability": "view",
      "type": "function"
    },
    {
      "constant": false,
      "inputs": [],
      "name": "deposit",
      "outputs": [],
      "payable": true,
      "stateMutability": "payable",
      "type": "function"
    },
    {
      "constant": false,
      "inputs": [
        {
          "name": "beneficiary",
          "type": "address"
        }
      ],
      "name": "addBeneficiary",
      "outputs": [],
      "payable": true,
      "stateMutability": "payable",
      "type": "function"
    },
    {
      "constant": false,
      "inputs": [],
      "name": "withdraw",
      "outputs": [],
      "payable": false,
      "stateMutability": "nonpayable",
      "type": "function"
    }
  ],
  "bytecode": "0x6080604052600560035534801561001557600080fd5b506100253361009460201b60201c565b6000600160006101000a81548160ff02191690831515021790555033600760006101000a81548173ffffffffffffffffffffffffffffffffffffffff021916908373ffffffffffffffffffffffffffffffffffffffff16021790555061008f6100f260201b60201c565b610243565b6100ac8160006100ff60201b610b2f1790919060201c565b8073ffffffffffffffffffffffffffffffffffffffff167f6719d08c1888103bea251a4ed56406bd0c3e69723c8a1686e017e7bbe159b6f860405160405180910390a250565b6003544201600281905550565b600073ffffffffffffffffffffffffffffffffffffffff168173ffffffffffffffffffffffffffffffffffffffff16141561013957600080fd5b61014982826101b160201b60201c565b1561015357600080fd5b60018260000160008373ffffffffffffffffffffffffffffffffffffffff1673ffffffffffffffffffffffffffffffffffffffff16815260200190815260200160002060006101000a81548160ff0219169083151502179055505050565b60008073ffffffffffffffffffffffffffffffffffffffff168273ffffffffffffffffffffffffffffffffffffffff1614156101ec57600080fd5b8260000160008373ffffffffffffffffffffffffffffffffffffffff1673ffffffffffffffffffffffffffffffffffffffff16815260200190815260200160002060009054906101000a900460ff16905092915050565b610c07806102526000396000f3fe6080604052600436106100c25760003560e01c80635c975abb1161007f578063722713f711610059578063722713f71461029357806382dc1ec4146102be5780638456cb591461030f578063d0e30db014610326576100c2565b80635c975abb146102365780636d8d37ed146102655780636ef8d66d1461027c576100c2565b806301567739146100c7578063323a5e0b146101305780633ccfd60b1461015b5780633f4ba83a1461017257806346fbf68e146101895780635926651d146101f2575b600080fd5b3480156100d357600080fd5b50610116600480360360208110156100ea57600080fd5b81019080803573ffffffffffffffffffffffffffffffffffffffff169060200190929190505050610330565b604051808215151515815260200191505060405180910390f35b34801561013c57600080fd5b50610145610350565b6040518082815260200191505060405180910390f35b34801561016757600080fd5b50610170610356565b005b34801561017e57600080fd5b5061018761056f565b005b34801561019557600080fd5b506101d8600480360360208110156101ac57600080fd5b81019080803573ffffffffffffffffffffffffffffffffffffffff16906020019092919050505061061a565b604051808215151515815260200191505060405180910390f35b6102346004803603602081101561020857600080fd5b81019080803573ffffffffffffffffffffffffffffffffffffffff169060200190929190505050610637565b005b34801561024257600080fd5b5061024b6107da565b604051808215151515815260200191505060405180910390f35b34801561027157600080fd5b5061027a6107f1565b005b34801561028857600080fd5b506102916107fe565b005b34801561029f57600080fd5b506102a8610809565b6040518082815260200191505060405180910390f35b3480156102ca57600080fd5b5061030d600480360360208110156102e157600080fd5b81019080803573ffffffffffffffffffffffffffffffffffffffff16906020019092919050505061082c565b005b34801561031b57600080fd5b5061032461084a565b005b61032e6108f5565b005b60086020528060005260406000206000915054906101000a900460ff1681565b60065481565b60025442116103cd576040517f08c379a000000000000000000000000000000000000000000000000000000000815260040180806020018281038252600c8152602001807f6f6e6c794f6e506179446179000000000000000000000000000000000000000081525060200191505060405180910390fd5b600160009054906101000a900460ff16156103e757600080fd5b60011515600860003373ffffffffffffffffffffffffffffffffffffffff1673ffffffffffffffffffffffffffffffffffffffff16815260200190815260200160002060009054906101000a900460ff161515146104ad576040517f08c379a00000000000000000000000000000000000000000000000000000000081526004018080602001828103825260108152602001807f6f6e6c792042656e65666963696172790000000000000000000000000000000081525060200191505060405180910390fd5b6000600860003373ffffffffffffffffffffffffffffffffffffffff1673ffffffffffffffffffffffffffffffffffffffff16815260200190815260200160002060006101000a81548160ff0219169083151502179055503373ffffffffffffffffffffffffffffffffffffffff166108fc671bc16d674ec800009081150290604051600060405180830381858888f19350505050158015610553573d6000803e3d6000fd5b5061055c6107f1565b6001600460008282540392505081905550565b6105783361061a565b61058157600080fd5b600160009054906101000a900460ff1661059a57600080fd5b6000600160006101000a81548160ff0219169083151502179055507f5db9ee0a495bf2e6ff9c91a7834c1ba4fdd244a5e8aa4e537bd38aeae4b073aa33604051808273ffffffffffffffffffffffffffffffffffffffff1673ffffffffffffffffffffffffffffffffffffffff16815260200191505060405180910390a1565b600061063082600061093e90919063ffffffff16565b9050919050565b600760009054906101000a900473ffffffffffffffffffffffffffffffffffffffff1673ffffffffffffffffffffffffffffffffffffffff163373ffffffffffffffffffffffffffffffffffffffff16146106fa576040517f08c379a000000000000000000000000000000000000000000000000000000000815260040180806020018281038252600a8152602001807f6f6e6c79204167656e740000000000000000000000000000000000000000000081525060200191505060405180910390fd5b600160009054906101000a900460ff161561071457600080fd5b60001515600860008373ffffffffffffffffffffffffffffffffffffffff1673ffffffffffffffffffffffffffffffffffffffff16815260200190815260200160002060009054906101000a900460ff161515141561077f5760016004600082825401925050819055505b6001600860008373ffffffffffffffffffffffffffffffffffffffff1673ffffffffffffffffffffffffffffffffffffffff16815260200190815260200160002060006101000a81548160ff02191690831515021790555050565b6000600160009054906101000a900460ff16905090565b6003544201600281905550565b610807336109d0565b565b60006005543073ffffffffffffffffffffffffffffffffffffffff163101905090565b6108353361061a565b61083e57600080fd5b61084781610a2a565b50565b6108533361061a565b61085c57600080fd5b600160009054906101000a900460ff161561087657600080fd5b60018060006101000a81548160ff0219169083151502179055507f62e78cea01bee320cd4e420270b5ea74000d11b0c9f74754ebdbfc544b05a25833604051808273ffffffffffffffffffffffffffffffffffffffff1673ffffffffffffffffffffffffffffffffffffffff16815260200191505060405180910390a1565b600160009054906101000a900460ff161561090f57600080fd5b346006600082825401925050819055506064600234028161092c57fe5b04600560008282540192505081905550565b60008073ffffffffffffffffffffffffffffffffffffffff168273ffffffffffffffffffffffffffffffffffffffff16141561097957600080fd5b8260000160008373ffffffffffffffffffffffffffffffffffffffff1673ffffffffffffffffffffffffffffffffffffffff16815260200190815260200160002060009054906101000a900460ff16905092915050565b6109e4816000610a8490919063ffffffff16565b8073ffffffffffffffffffffffffffffffffffffffff167fcd265ebaf09df2871cc7bd4133404a235ba12eff2041bb89d9c714a2621c7c7e60405160405180910390a250565b610a3e816000610b2f90919063ffffffff16565b8073ffffffffffffffffffffffffffffffffffffffff167f6719d08c1888103bea251a4ed56406bd0c3e69723c8a1686e017e7bbe159b6f860405160405180910390a250565b600073ffffffffffffffffffffffffffffffffffffffff168173ffffffffffffffffffffffffffffffffffffffff161415610abe57600080fd5b610ac8828261093e565b610ad157600080fd5b60008260000160008373ffffffffffffffffffffffffffffffffffffffff1673ffffffffffffffffffffffffffffffffffffffff16815260200190815260200160002060006101000a81548160ff0219169083151502179055505050565b600073ffffffffffffffffffffffffffffffffffffffff168173ffffffffffffffffffffffffffffffffffffffff161415610b6957600080fd5b610b73828261093e565b15610b7d57600080fd5b60018260000160008373ffffffffffffffffffffffffffffffffffffffff1673ffffffffffffffffffffffffffffffffffffffff16815260200190815260200160002060006101000a81548160ff021916908315150217905550505056fea165627a7a72305820377fc99651534feb1fda1b69ede5831274f0323d50fb29c269964900587d41660029",
  "source": "pragma solidity ^0.5.0;\n\nimport 'openzeppelin-solidity/contracts/lifecycle/Pausable.sol';\n//import 'github.com/OpenZeppelin/zeppelin-solidity/contracts/lifecycle/Pausable.sol';\n\n\n/** @title Universal Block Income (UBI) */\ncontract UBI is Pausable {\n\n    uint payTime;\n    uint claimWaitSeconds = 5; //this needs to be set to 86400 seconds (24 hours) for PROD, current 5 seconds are for testing purposes\n    uint beneficiaryCount;\n    uint interest;\n    uint public deposits; //set to private for PROD, that no other contracts can call it\n    address private agent;\n    mapping(address => bool) public beneficiaries; //set to private for PROD\n\n    constructor() public {\n        agent = msg.sender;\n        updateClaimTime();\n    }\n\n    /** @dev Updates a time, when a claim is made with additional 24 hours\n      *  now = current block timestamp\n      *  claimWaitSeconds is specified in the variables on the top\n      * @return payTime, the time when then next claim can be made\n      */\n    function updateClaimTime() public {\n         payTime = now + claimWaitSeconds;\n    }\n\n    /** @dev fake function to get a virtual interest\n      * @return balance + interest\n      */\n    function balanceOf()\n    view\n    external\n    returns(uint) {\n\n      return address(this).balance + interest;\n    }\n\n    /** @dev donor can deposit an amount to an account accessible by the beneficiaries\n      * @return deposit made by donor\n      */\n    function deposit()\n    external //only people from outside can call it, want to be as restrictive as possible\n    whenNotPaused()\n    payable\n    {\n        deposits += msg.value;\n        interest += (msg.value * 2) / 100;\n    }\n\n    /** @dev adds a UBI beneficiary to a mapping\n      *  adds a beneficiary if the beneficiary isn't in the mapping yet\n      *  beneficiaryCount is number of beneficiaries\n      */\n    function addBeneficiary(address payable beneficiary)\n    external\n    onlyAgent()\n    whenNotPaused()\n    payable\n    {\n        if (beneficiaries[beneficiary] == false) {\n            beneficiaryCount += 1;\n        }\n        beneficiaries[beneficiary] = true;\n\n    }\n\n\n    /** @dev Beneficiary can withdraw her/his share of the UBI\n      *  interest available in deposit account is divided by the count of beneficiaries\n      *  time of claim is updated, that beneficiaries can't claim multiple times in 24 hours\n      *  beneficiary count is reset\n      */\n    function withdraw()\n    public\n    onlyOnPayDay()\n    whenNotPaused()\n    onlyBeneficiary()\n    {\n        beneficiaries[msg.sender] = false;\n        msg.sender.transfer(2000000000000000000); //for now I send an arbitrary number as there was not enough time to work on the interest function, I needed to understand the gas fee first\n        updateClaimTime();\n        beneficiaryCount -= 1;\n\n    }\n\n    /** @dev defines owner of contract\n      */\n    modifier onlyAgent() {\n        require(msg.sender == agent, \"only Agent\");\n        _;\n    }\n    /** @dev defines who is a beneficiary\n      */\n    modifier onlyBeneficiary() {\n        require(beneficiaries[msg.sender] == true, \"only Beneficiary\");\n        _;\n    }\n    /** @dev defines when future withdrawal will be possible\n      */\n    modifier onlyOnPayDay() {\n        require(now > payTime, \"onlyOnPayDay\");\n        _;\n    }\n\n\n}\n",
  "sourcePath": "/Users/toby/Dropbox/SitesundIdeas/Techdegree-fsjs/techdegree-fsjs-project-1/consensys_final_project/contracts/UBI.sol",
  "compiler": {
    "name": "solc",
    "version": "0.5.8+commit.23d335f2.Emscripten.clang"
  },
  "schemaVersion": "3.0.11",
  "updatedAt": "2019-07-31T10:53:47.506Z",
  "devdoc": {
    "methods": {
      "addBeneficiary(address)": {
        "details": "adds a UBI beneficiary to a mapping adds a beneficiary if the beneficiary isn't in the mapping yet beneficiaryCount is number of beneficiaries"
      },
      "balanceOf()": {
        "details": "fake function to get a virtual interest",
        "return": "balance + interest"
      },
      "deposit()": {
        "details": "donor can deposit an amount to an account accessible by the beneficiaries",
        "return": "deposit made by donor"
      },
      "pause()": {
        "details": "called by the owner to pause, triggers stopped state"
      },
      "paused()": {
        "return": "true if the contract is paused, false otherwise."
      },
      "unpause()": {
        "details": "called by the owner to unpause, returns to normal state"
      },
      "updateClaimTime()": {
        "details": "Updates a time, when a claim is made with additional 24 hours now = current block timestamp claimWaitSeconds is specified in the variables on the top",
        "return": "payTime, the time when then next claim can be made"
      },
      "withdraw()": {
        "details": "Beneficiary can withdraw her/his share of the UBI interest available in deposit account is divided by the count of beneficiaries time of claim is updated, that beneficiaries can't claim multiple times in 24 hours beneficiary count is reset"
      }
    },
    "title": "Universal Block Income (UBI) "
  },
  "userdoc": {
    "methods": {}
  }
}