{
  "contractName": "UBI",
  "abi": [
    {
      "constant": true,
      "inputs": [
        {
          "name": "",
          "type": "address"
        }
      ],
      "name": "beneficiaries",
      "outputs": [
        {
          "name": "",
          "type": "bool"
        }
      ],
      "payable": false,
      "stateMutability": "view",
      "type": "function"
    },
    {
      "constant": true,
      "inputs": [],
      "name": "deposits",
      "outputs": [
        {
          "name": "",
          "type": "uint256"
        }
      ],
      "payable": false,
      "stateMutability": "view",
      "type": "function"
    },
    {
      "constant": false,
      "inputs": [],
      "name": "unpause",
      "outputs": [],
      "payable": false,
      "stateMutability": "nonpayable",
      "type": "function"
    },
    {
      "constant": true,
      "inputs": [
        {
          "name": "account",
          "type": "address"
        }
      ],
      "name": "isPauser",
      "outputs": [
        {
          "name": "",
          "type": "bool"
        }
      ],
      "payable": false,
      "stateMutability": "view",
      "type": "function"
    },
    {
      "constant": true,
      "inputs": [],
      "name": "paused",
      "outputs": [
        {
          "name": "",
          "type": "bool"
        }
      ],
      "payable": false,
      "stateMutability": "view",
      "type": "function"
    },
    {
      "constant": false,
      "inputs": [],
      "name": "renouncePauser",
      "outputs": [],
      "payable": false,
      "stateMutability": "nonpayable",
      "type": "function"
    },
    {
      "constant": false,
      "inputs": [
        {
          "name": "account",
          "type": "address"
        }
      ],
      "name": "addPauser",
      "outputs": [],
      "payable": false,
      "stateMutability": "nonpayable",
      "type": "function"
    },
    {
      "constant": false,
      "inputs": [],
      "name": "pause",
      "outputs": [],
      "payable": false,
      "stateMutability": "nonpayable",
      "type": "function"
    },
    {
      "inputs": [],
      "payable": false,
      "stateMutability": "nonpayable",
      "type": "constructor"
    },
    {
      "anonymous": false,
      "inputs": [
        {
          "indexed": false,
          "name": "account",
          "type": "address"
        }
      ],
      "name": "Paused",
      "type": "event"
    },
    {
      "anonymous": false,
      "inputs": [
        {
          "indexed": false,
          "name": "account",
          "type": "address"
        }
      ],
      "name": "Unpaused",
      "type": "event"
    },
    {
      "anonymous": false,
      "inputs": [
        {
          "indexed": true,
          "name": "account",
          "type": "address"
        }
      ],
      "name": "PauserAdded",
      "type": "event"
    },
    {
      "anonymous": false,
      "inputs": [
        {
          "indexed": true,
          "name": "account",
          "type": "address"
        }
      ],
      "name": "PauserRemoved",
      "type": "event"
    },
    {
      "constant": false,
      "inputs": [],
      "name": "updateClaimTime",
      "outputs": [],
      "payable": false,
      "stateMutability": "nonpayable",
      "type": "function"
    },
    {
      "constant": false,
      "inputs": [],
      "name": "deposit",
      "outputs": [],
      "payable": true,
      "stateMutability": "payable",
      "type": "function"
    },
    {
      "constant": false,
      "inputs": [
        {
          "name": "beneficiary",
          "type": "address"
        }
      ],
      "name": "addBeneficiary",
      "outputs": [],
      "payable": true,
      "stateMutability": "payable",
      "type": "function"
    },
    {
      "constant": false,
      "inputs": [],
      "name": "withdraw",
      "outputs": [],
      "payable": true,
      "stateMutability": "payable",
      "type": "function"
    }
  ],
  "bytecode": "0x6080604052600560035534801561001557600080fd5b506100253361009460201b60201c565b6000600160006101000a81548160ff02191690831515021790555033600760006101000a81548173ffffffffffffffffffffffffffffffffffffffff021916908373ffffffffffffffffffffffffffffffffffffffff16021790555061008f6100f260201b60201c565b610243565b6100ac8160006100ff60201b6109661790919060201c565b8073ffffffffffffffffffffffffffffffffffffffff167f6719d08c1888103bea251a4ed56406bd0c3e69723c8a1686e017e7bbe159b6f860405160405180910390a250565b6003544201600281905550565b600073ffffffffffffffffffffffffffffffffffffffff168173ffffffffffffffffffffffffffffffffffffffff16141561013957600080fd5b61014982826101b160201b60201c565b1561015357600080fd5b60018260000160008373ffffffffffffffffffffffffffffffffffffffff1673ffffffffffffffffffffffffffffffffffffffff16815260200190815260200160002060006101000a81548160ff0219169083151502179055505050565b60008073ffffffffffffffffffffffffffffffffffffffff168273ffffffffffffffffffffffffffffffffffffffff1614156101ec57600080fd5b8260000160008373ffffffffffffffffffffffffffffffffffffffff1673ffffffffffffffffffffffffffffffffffffffff16815260200190815260200160002060009054906101000a900460ff16905092915050565b610a3e806102526000396000f3fe6080604052600436106100a75760003560e01c80635c975abb116100645780635c975abb1461020e5780636d8d37ed1461023d5780636ef8d66d1461025457806382dc1ec41461026b5780638456cb59146102bc578063d0e30db0146102d3576100a7565b806301567739146100ac578063323a5e0b146101155780633ccfd60b146101405780633f4ba83a1461014a57806346fbf68e146101615780635926651d146101ca575b600080fd5b3480156100b857600080fd5b506100fb600480360360208110156100cf57600080fd5b81019080803573ffffffffffffffffffffffffffffffffffffffff1690602001909291905050506102dd565b604051808215151515815260200191505060405180910390f35b34801561012157600080fd5b5061012a6102fd565b6040518082815260200191505060405180910390f35b610148610303565b005b34801561015657600080fd5b5061015f61044f565b005b34801561016d57600080fd5b506101b06004803603602081101561018457600080fd5b81019080803573ffffffffffffffffffffffffffffffffffffffff1690602001909291905050506104fa565b604051808215151515815260200191505060405180910390f35b61020c600480360360208110156101e057600080fd5b81019080803573ffffffffffffffffffffffffffffffffffffffff169060200190929190505050610517565b005b34801561021a57600080fd5b50610223610651565b604051808215151515815260200191505060405180910390f35b34801561024957600080fd5b50610252610668565b005b34801561026057600080fd5b50610269610675565b005b34801561027757600080fd5b506102ba6004803603602081101561028e57600080fd5b81019080803573ffffffffffffffffffffffffffffffffffffffff169060200190929190505050610680565b005b3480156102c857600080fd5b506102d161069e565b005b6102db610749565b005b60086020528060005260406000206000915054906101000a900460ff1681565b60065481565b600254421161031157600080fd5b600160009054906101000a900460ff161561032b57600080fd5b60011515600860003373ffffffffffffffffffffffffffffffffffffffff1673ffffffffffffffffffffffffffffffffffffffff16815260200190815260200160002060009054906101000a900460ff1615151461038857600080fd5b6000600860003373ffffffffffffffffffffffffffffffffffffffff1673ffffffffffffffffffffffffffffffffffffffff16815260200190815260200160002060006101000a81548160ff0219169083151502179055503373ffffffffffffffffffffffffffffffffffffffff166108fc6004546005548161040757fe5b049081150290604051600060405180830381858888f19350505050158015610433573d6000803e3d6000fd5b5061043c610668565b6001600460008282540392505081905550565b610458336104fa565b61046157600080fd5b600160009054906101000a900460ff1661047a57600080fd5b6000600160006101000a81548160ff0219169083151502179055507f5db9ee0a495bf2e6ff9c91a7834c1ba4fdd244a5e8aa4e537bd38aeae4b073aa33604051808273ffffffffffffffffffffffffffffffffffffffff1673ffffffffffffffffffffffffffffffffffffffff16815260200191505060405180910390a1565b600061051082600061077590919063ffffffff16565b9050919050565b600760009054906101000a900473ffffffffffffffffffffffffffffffffffffffff1673ffffffffffffffffffffffffffffffffffffffff163373ffffffffffffffffffffffffffffffffffffffff161461057157600080fd5b600160009054906101000a900460ff161561058b57600080fd5b60001515600860008373ffffffffffffffffffffffffffffffffffffffff1673ffffffffffffffffffffffffffffffffffffffff16815260200190815260200160002060009054906101000a900460ff16151514156105f65760016004600082825401925050819055505b6001600860008373ffffffffffffffffffffffffffffffffffffffff1673ffffffffffffffffffffffffffffffffffffffff16815260200190815260200160002060006101000a81548160ff02191690831515021790555050565b6000600160009054906101000a900460ff16905090565b6003544201600281905550565b61067e33610807565b565b610689336104fa565b61069257600080fd5b61069b81610861565b50565b6106a7336104fa565b6106b057600080fd5b600160009054906101000a900460ff16156106ca57600080fd5b60018060006101000a81548160ff0219169083151502179055507f62e78cea01bee320cd4e420270b5ea74000d11b0c9f74754ebdbfc544b05a25833604051808273ffffffffffffffffffffffffffffffffffffffff1673ffffffffffffffffffffffffffffffffffffffff16815260200191505060405180910390a1565b600160009054906101000a900460ff161561076357600080fd5b34600660008282540192505081905550565b60008073ffffffffffffffffffffffffffffffffffffffff168273ffffffffffffffffffffffffffffffffffffffff1614156107b057600080fd5b8260000160008373ffffffffffffffffffffffffffffffffffffffff1673ffffffffffffffffffffffffffffffffffffffff16815260200190815260200160002060009054906101000a900460ff16905092915050565b61081b8160006108bb90919063ffffffff16565b8073ffffffffffffffffffffffffffffffffffffffff167fcd265ebaf09df2871cc7bd4133404a235ba12eff2041bb89d9c714a2621c7c7e60405160405180910390a250565b61087581600061096690919063ffffffff16565b8073ffffffffffffffffffffffffffffffffffffffff167f6719d08c1888103bea251a4ed56406bd0c3e69723c8a1686e017e7bbe159b6f860405160405180910390a250565b600073ffffffffffffffffffffffffffffffffffffffff168173ffffffffffffffffffffffffffffffffffffffff1614156108f557600080fd5b6108ff8282610775565b61090857600080fd5b60008260000160008373ffffffffffffffffffffffffffffffffffffffff1673ffffffffffffffffffffffffffffffffffffffff16815260200190815260200160002060006101000a81548160ff0219169083151502179055505050565b600073ffffffffffffffffffffffffffffffffffffffff168173ffffffffffffffffffffffffffffffffffffffff1614156109a057600080fd5b6109aa8282610775565b156109b457600080fd5b60018260000160008373ffffffffffffffffffffffffffffffffffffffff1673ffffffffffffffffffffffffffffffffffffffff16815260200190815260200160002060006101000a81548160ff021916908315150217905550505056fea165627a7a72305820af0c84acbde334313e86fd780b6fcea0500f4aa84819f35c6f624c26f290a3b60029",
  "source": "pragma solidity ^0.5.0;\n\nimport 'openzeppelin-solidity/contracts/lifecycle/Pausable.sol';\n//import 'github.com/OpenZeppelin/zeppelin-solidity/contracts/lifecycle/Pausable.sol';\n\n\n\ncontract UBI is Pausable {\n\n    uint payTime;\n    uint claimWaitSeconds = 5 seconds;\n    uint beneficiaryCount;\n    uint interest;\n    uint public deposits; //no other contracts can call it\n    address private agent;\n    mapping(address => bool) public beneficiaries;\n\n    constructor() public {\n        agent = msg.sender;\n        updateClaimTime();\n    }\n\n    function updateClaimTime() public {\n         payTime = now + claimWaitSeconds;\n    }\n\n    function deposit()\n    external //only people from outside can call it, want to be as restrictive as possible\n    whenNotPaused()\n    payable\n    {\n        deposits += msg.value;\n    }\n\n    function addBeneficiary(address payable beneficiary)\n    external\n    onlyAgent()\n    whenNotPaused()\n    payable\n    {\n        if (beneficiaries[beneficiary] == false) {\n            beneficiaryCount += 1;\n        }\n        beneficiaries[beneficiary] = true;\n\n    }\n\n    function withdraw()\n    public\n    onlyOnPayDay()\n    whenNotPaused()\n    onlyBeneficiary()\n    payable\n    {\n        beneficiaries[msg.sender] = false;\n        msg.sender.transfer(interest/beneficiaryCount);\n        updateClaimTime();\n        beneficiaryCount -= 1;\n\n    }\n\n    modifier onlyAgent() {\n        require(msg.sender == agent);\n        _;\n    }\n\n    modifier onlyBeneficiary() {\n        require(beneficiaries[msg.sender] == true);\n        _;\n    }\n\n    modifier onlyOnPayDay() {\n        require (block.timestamp > payTime);\n        _;\n    }\n\n\n}\n",
  "sourcePath": "/Users/toby/Desktop/H_FinalProject/contracts/UBI.sol",
  "compiler": {
    "name": "solc",
    "version": "0.5.8+commit.23d335f2.Emscripten.clang"
  },
  "schemaVersion": "3.0.11",
  "updatedAt": "2019-07-25T20:04:44.047Z",
  "devdoc": {
    "methods": {
      "pause()": {
        "details": "called by the owner to pause, triggers stopped state"
      },
      "paused()": {
        "return": "true if the contract is paused, false otherwise."
      },
      "unpause()": {
        "details": "called by the owner to unpause, returns to normal state"
      }
    }
  },
  "userdoc": {
    "methods": {}
  }
}